{
  "contractName": "VotingSystem",
  "abi": [
    {
      "constant": true,
      "inputs": [
        {
          "name": "",
          "type": "uint256"
        }
      ],
      "name": "ballots",
      "outputs": [
        {
          "name": "name",
          "type": "bytes32"
        },
        {
          "name": "state",
          "type": "uint8"
        },
        {
          "name": "owner",
          "type": "address"
        }
      ],
      "payable": false,
      "stateMutability": "view",
      "type": "function"
    },
    {
      "constant": false,
      "inputs": [
        {
          "name": "_ballotName",
          "type": "bytes32"
        }
      ],
      "name": "createBallot",
      "outputs": [],
      "payable": false,
      "stateMutability": "nonpayable",
      "type": "function"
    },
    {
      "constant": true,
      "inputs": [
        {
          "name": "_ballotName",
          "type": "bytes32"
        }
      ],
      "name": "openBallotVotes",
      "outputs": [],
      "payable": false,
      "stateMutability": "view",
      "type": "function"
    },
    {
      "constant": true,
      "inputs": [
        {
          "name": "_ballotName",
          "type": "bytes32"
        }
      ],
      "name": "closeBallotVotes",
      "outputs": [],
      "payable": false,
      "stateMutability": "view",
      "type": "function"
    },
    {
      "constant": true,
      "inputs": [
        {
          "name": "_ballotName",
          "type": "bytes32"
        }
      ],
      "name": "getBallot",
      "outputs": [
        {
          "components": [
            {
              "name": "name",
              "type": "bytes32"
            },
            {
              "name": "state",
              "type": "uint8"
            },
            {
              "name": "owner",
              "type": "address"
            }
          ],
          "name": "",
          "type": "tuple"
        }
      ],
      "payable": false,
      "stateMutability": "view",
      "type": "function"
    },
    {
      "constant": true,
      "inputs": [
        {
          "name": "_ballotName",
          "type": "bytes32"
        }
      ],
      "name": "isCreated",
      "outputs": [
        {
          "name": "",
          "type": "bool"
        }
      ],
      "payable": false,
      "stateMutability": "view",
      "type": "function"
    },
    {
      "constant": true,
      "inputs": [
        {
          "name": "_ballotName",
          "type": "bytes32"
        }
      ],
      "name": "isOpened",
      "outputs": [
        {
          "name": "",
          "type": "bool"
        }
      ],
      "payable": false,
      "stateMutability": "view",
      "type": "function"
    }
  ],
  "bytecode": "0x608060405234801561001057600080fd5b50610a6d806100206000396000f300608060405260043610610083576000357c0100000000000000000000000000000000000000000000000000000000900463ffffffff1680632f553d31146100885780635c632b38146100c55780635f5794f1146101045780636d9434511461014157806394ad119a1461016a578063b6e63315146101a7578063fd04dadd146101d0575b600080fd5b34801561009457600080fd5b506100af60048036036100aa9190810190610884565b6101f9565b6040516100bc9190610954565b60405180910390f35b3480156100d157600080fd5b506100ec60048036036100e791908101906108ad565b610269565b6040516100fb9392919061096f565b60405180910390f35b34801561011057600080fd5b5061012b60048036036101269190810190610884565b6102cf565b6040516101389190610954565b60405180910390f35b34801561014d57600080fd5b5061016860048036036101639190810190610884565b61030a565b005b34801561017657600080fd5b50610191600480360361018c9190810190610884565b610432565b60405161019e91906109a6565b60405180910390f35b3480156101b357600080fd5b506101ce60048036036101c99190810190610884565b610520565b005b3480156101dc57600080fd5b506101f760048036036101f29190810190610884565b610624565b005b6000806001600084600019166000191681526020019081526020016000205490506000600281111561022757fe5b60008281548110151561023657fe5b906000526020600020906002020160010160009054906101000a900460ff16600281111561026057fe5b14915050919050565b60008181548110151561027857fe5b90600052602060002090600202016000915090508060000154908060010160009054906101000a900460ff16908060010160019054906101000a900473ffffffffffffffffffffffffffffffffffffffff16905083565b60006102d9610816565b6102e283610432565b9050600160028111156102f157fe5b8160200151600281111561030157fe5b14915050919050565b610312610816565b6000606060405190810160405280846000191681526020016000600281111561033757fe5b81526020013373ffffffffffffffffffffffffffffffffffffffff1681525091506001600083908060018154018082558091505090600182039060005260206000209060020201600090919290919091506000820151816000019060001916905560208201518160010160006101000a81548160ff021916908360028111156103bc57fe5b021790555060408201518160010160016101000a81548173ffffffffffffffffffffffffffffffffffffffff021916908373ffffffffffffffffffffffffffffffffffffffff16021790555050500390508060016000856000191660001916815260200190815260200160002081905550505050565b61043a610816565b600060016000846000191660001916815260200190815260200160002054905060008181548110151561046957fe5b9060005260206000209060020201606060405190810160405290816000820154600019166000191681526020016001820160009054906101000a900460ff1660028111156104b357fe5b60028111156104be57fe5b81526020016001820160019054906101000a900473ffffffffffffffffffffffffffffffffffffffff1673ffffffffffffffffffffffffffffffffffffffff1673ffffffffffffffffffffffffffffffffffffffff1681525050915050919050565b80600060016000836000191660001916815260200190815260200160002054905060008181548110151561055057fe5b90600052602060002090600202016000015460001916826000191614151561057757600080fd5b823373ffffffffffffffffffffffffffffffffffffffff1661059882610728565b6040015173ffffffffffffffffffffffffffffffffffffffff161415156105be57600080fd5b8360018060028111156105cd57fe5b6105d683610728565b6020015160028111156105e557fe5b1415156105f157600080fd5b60026105fc87610728565b60200190600281111561060b57fe5b9081600281111561061857fe5b81525050505050505050565b80600060016000836000191660001916815260200190815260200160002054905060008181548110151561065457fe5b90600052602060002090600202016000015460001916826000191614151561067b57600080fd5b823373ffffffffffffffffffffffffffffffffffffffff1661069c82610728565b6040015173ffffffffffffffffffffffffffffffffffffffff161415156106c257600080fd5b8360008060028111156106d157fe5b6106da83610728565b6020015160028111156106e957fe5b1415156106f557600080fd5b600161070087610728565b60200190600281111561070f57fe5b9081600281111561071c57fe5b81525050505050505050565b610730610816565b600060016000846000191660001916815260200190815260200160002054905060008181548110151561075f57fe5b9060005260206000209060020201606060405190810160405290816000820154600019166000191681526020016001820160009054906101000a900460ff1660028111156107a957fe5b60028111156107b457fe5b81526020016001820160019054906101000a900473ffffffffffffffffffffffffffffffffffffffff1673ffffffffffffffffffffffffffffffffffffffff1673ffffffffffffffffffffffffffffffffffffffff1681525050915050919050565b606060405190810160405280600080191681526020016000600281111561083957fe5b8152602001600073ffffffffffffffffffffffffffffffffffffffff1681525090565b60006108688235610a0d565b905092915050565b600061087c8235610a17565b905092915050565b60006020828403121561089657600080fd5b60006108a48482850161085c565b91505092915050565b6000602082840312156108bf57600080fd5b60006108cd84828501610870565b91505092915050565b6108df816109c1565b82525050565b6108ee816109e1565b82525050565b6108fd816109ed565b82525050565b61090c81610a21565b82525050565b60608201600082015161092860008501826108f4565b50602082015161093b6020850182610903565b50604082015161094e60408501826108d6565b50505050565b600060208201905061096960008301846108e5565b92915050565b600060608201905061098460008301866108f4565b6109916020830185610903565b61099e60408301846108d6565b949350505050565b60006060820190506109bb6000830184610912565b92915050565b600073ffffffffffffffffffffffffffffffffffffffff82169050919050565b60008115159050919050565b6000819050919050565b6000600382101515610a0557fe5b819050919050565b6000819050919050565b6000819050919050565b6000610a2c826109f7565b90509190505600a265627a7a72305820eb6ef6d4e596bafed9c8d19e5a352a8da4d4c47cde733094961c4b5856ae19966c6578706572696d656e74616cf50037",
  "source": "//pragma solidity ^0.5.11;\r\npragma solidity ^0.4.25;\r\npragma experimental ABIEncoderV2;\r\n\r\ncontract VotingSystem {\r\n\r\n    enum State {\r\n        CREATED, //Can add participants\r\n        OPENED, //Can vote\r\n        CLOSED //Can watch results\r\n    }\r\n\r\n    struct Ballot {\r\n        bytes32 name;\r\n        State state;\r\n        address owner;\r\n    }\r\n\r\n    Ballot[] public ballots;\r\n    mapping(bytes32 => uint) ballotMapping;\r\n\r\n    modifier ballotExists(bytes32 _ballotName) {\r\n        uint _ballotId = ballotMapping[_ballotName];\r\n        require(_ballotName == ballots[_ballotId].name);\r\n        _;\r\n    }\r\n\r\n    modifier ownsBallot(bytes32 _ballotName) {\r\n        require(getBallotByName(_ballotName).owner == msg.sender);\r\n        _;\r\n    }\r\n\r\n    modifier isState(bytes32 _ballotName, State _state) {\r\n        require(getBallotByName(_ballotName).state == _state);\r\n        _;\r\n    }\r\n\r\n    function createBallot(bytes32 _ballotName) public {\r\n        Ballot memory _newBallot = Ballot({\r\n            name : _ballotName,\r\n            state : State.CREATED,\r\n            owner : msg.sender\r\n            });\r\n\r\n        uint _ballotId = ballots.push(_newBallot) - 1;\r\n        ballotMapping[_ballotName] = _ballotId;\r\n    }\r\n\r\n    function openBallotVotes(bytes32 _ballotName) view public ballotExists(_ballotName) ownsBallot(_ballotName) isState(_ballotName, State.CREATED) {\r\n        getBallotByName(_ballotName).state = State.OPENED;\r\n    }\r\n\r\n    function closeBallotVotes(bytes32 _ballotName) view public ballotExists(_ballotName) ownsBallot(_ballotName) isState(_ballotName, State.OPENED) {\r\n        getBallotByName(_ballotName).state = State.CLOSED;\r\n    }\r\n\r\n    function getBallotByName(bytes32 _ballotName) internal view returns (Ballot memory) {\r\n        uint _ballotId = ballotMapping[_ballotName];\r\n        return ballots[_ballotId];\r\n    }\r\n\r\n    function getBallot(bytes32 _ballotName) view public returns (Ballot memory) {\r\n        uint ballotId = ballotMapping[_ballotName];\r\n        return ballots[ballotId];\r\n    }\r\n\r\n    function isCreated(bytes32 _ballotName) view public returns (bool) {\r\n        uint ballotId = ballotMapping[_ballotName];\r\n        return ballots[ballotId].state == State.CREATED;\r\n    }\r\n\r\n    function isOpened(bytes32 _ballotName) view public returns (bool) {\r\n        Ballot memory _ballot = getBallot(_ballotName);\r\n        return _ballot.state == State.OPENED;\r\n    }\r\n}\r\n",
  "sourcePath": "D:/ESGI/5AL-S1/Blockchain/SmartVotingSystemContract/contracts/VotingSystem.sol",
  "compiler": {
    "name": "solc",
    "version": "0.4.25+commit.59dbf8f1.Emscripten.clang"
  },
  "schemaVersion": "3.0.19",
  "updatedAt": "2019-12-06T09:07:02.598Z",
  "networkType": "ethereum",
  "devdoc": {
    "methods": {}
  },
  "userdoc": {
    "methods": {}
  }
}