{
  "contractName": "VotingSystem",
  "abi": [
    {
      "constant": false,
      "inputs": [
        {
          "name": "_ballotName",
          "type": "bytes32"
        }
      ],
      "name": "createBallot",
      "outputs": [],
      "payable": false,
      "stateMutability": "nonpayable",
      "type": "function",
      "signature": "0x6d943451"
    },
    {
      "constant": false,
      "inputs": [
        {
          "name": "_ballotName",
          "type": "bytes32"
        }
      ],
      "name": "openBallotVotes",
      "outputs": [],
      "payable": false,
      "stateMutability": "nonpayable",
      "type": "function",
      "signature": "0xfd04dadd"
    },
    {
      "constant": false,
      "inputs": [
        {
          "name": "_ballotName",
          "type": "bytes32"
        }
      ],
      "name": "closeBallotVotes",
      "outputs": [],
      "payable": false,
      "stateMutability": "nonpayable",
      "type": "function",
      "signature": "0xb6e63315"
    },
    {
      "constant": true,
      "inputs": [
        {
          "name": "_ballotName",
          "type": "bytes32"
        }
      ],
      "name": "getBallot",
      "outputs": [
        {
          "components": [
            {
              "name": "name",
              "type": "bytes32"
            },
            {
              "name": "state",
              "type": "uint8"
            },
            {
              "name": "owner",
              "type": "address"
            },
            {
              "name": "candidatesName",
              "type": "bytes32[]"
            }
          ],
          "name": "",
          "type": "tuple"
        }
      ],
      "payable": false,
      "stateMutability": "view",
      "type": "function",
      "signature": "0x94ad119a"
    },
    {
      "constant": true,
      "inputs": [
        {
          "name": "_ballotName",
          "type": "bytes32"
        }
      ],
      "name": "isCreated",
      "outputs": [
        {
          "name": "",
          "type": "bool"
        }
      ],
      "payable": false,
      "stateMutability": "view",
      "type": "function",
      "signature": "0x2f553d31"
    },
    {
      "constant": true,
      "inputs": [
        {
          "name": "_ballotName",
          "type": "bytes32"
        }
      ],
      "name": "isOpened",
      "outputs": [
        {
          "name": "",
          "type": "bool"
        }
      ],
      "payable": false,
      "stateMutability": "view",
      "type": "function",
      "signature": "0x5f5794f1"
    },
    {
      "constant": true,
      "inputs": [
        {
          "name": "_ballotName",
          "type": "bytes32"
        }
      ],
      "name": "isEnclosed",
      "outputs": [
        {
          "name": "",
          "type": "bool"
        }
      ],
      "payable": false,
      "stateMutability": "view",
      "type": "function",
      "signature": "0x11604adf"
    },
    {
      "constant": false,
      "inputs": [
        {
          "name": "_ballotName",
          "type": "bytes32"
        },
        {
          "name": "_candidateName",
          "type": "bytes32"
        }
      ],
      "name": "addCandidate",
      "outputs": [],
      "payable": false,
      "stateMutability": "nonpayable",
      "type": "function",
      "signature": "0xa1adbb25"
    },
    {
      "constant": true,
      "inputs": [
        {
          "name": "_ballotName",
          "type": "bytes32"
        }
      ],
      "name": "getCandidatesResult",
      "outputs": [
        {
          "components": [
            {
              "name": "name",
              "type": "bytes32"
            },
            {
              "name": "vote",
              "type": "uint256"
            }
          ],
          "name": "",
          "type": "tuple[]"
        }
      ],
      "payable": false,
      "stateMutability": "view",
      "type": "function",
      "signature": "0x6ca1d403"
    },
    {
      "constant": false,
      "inputs": [
        {
          "name": "_ballotName",
          "type": "bytes32"
        },
        {
          "name": "_candidateName",
          "type": "bytes32"
        }
      ],
      "name": "vote",
      "outputs": [],
      "payable": false,
      "stateMutability": "nonpayable",
      "type": "function",
      "signature": "0xeeaaf19d"
    }
  ],
  "bytecode": "0x608060405234801561001057600080fd5b506110de806100206000396000f3006080604052600436106100a4576000357c0100000000000000000000000000000000000000000000000000000000900463ffffffff16806311604adf146100a95780632f553d31146100e65780635f5794f1146101235780636ca1d403146101605780636d9434511461019d57806394ad119a146101c6578063a1adbb2514610203578063b6e633151461022c578063eeaaf19d14610255578063fd04dadd1461027e575b600080fd5b3480156100b557600080fd5b506100d060048036036100cb9190810190610d91565b6102a7565b6040516100dd9190610fab565b60405180910390f35b3480156100f257600080fd5b5061010d60048036036101089190810190610d91565b610308565b60405161011a9190610fab565b60405180910390f35b34801561012f57600080fd5b5061014a60048036036101459190810190610d91565b61036a565b6040516101579190610fab565b60405180910390f35b34801561016c57600080fd5b5061018760048036036101829190810190610d91565b6103cc565b6040516101949190610f89565b60405180910390f35b3480156101a957600080fd5b506101c460048036036101bf9190810190610d91565b610515565b005b3480156101d257600080fd5b506101ed60048036036101e89190810190610d91565b610689565b6040516101fa9190610fc6565b60405180910390f35b34801561020f57600080fd5b5061022a60048036036102259190810190610dba565b6106d4565b005b34801561023857600080fd5b50610253600480360361024e9190810190610d91565b610819565b005b34801561026157600080fd5b5061027c60048036036102779190810190610dba565b6108fa565b005b34801561028a57600080fd5b506102a560048036036102a09190810190610d91565b6109c5565b005b600081600060038111156102b757fe5b6102c082610aa6565b6020015160038111156102cf57fe5b1115156102db57600080fd5b6003808111156102e757fe5b6102f084610aa6565b6020015160038111156102ff57fe5b14915050919050565b6000816000600381111561031857fe5b61032182610aa6565b60200151600381111561033057fe5b11151561033c57600080fd5b6001600381111561034957fe5b61035284610aa6565b60200151600381111561036157fe5b14915050919050565b6000816000600381111561037a57fe5b61038382610aa6565b60200151600381111561039257fe5b11151561039e57600080fd5b600260038111156103ab57fe5b6103b484610aa6565b6020015160038111156103c357fe5b14915050919050565b60606103d6610c9b565b6060600084600060038111156103e857fe5b6103f182610aa6565b60200151600381111561040057fe5b11151561040c57600080fd5b61041586610aa6565b935083606001515160405190808252806020026020018201604052801561045657816020015b610443610ce8565b81526020019060019003908161043b5790505b509250600091505b83606001515182101561050957600260008760001916600019168152602001908152602001600020600085606001518481518110151561049a57fe5b906020019060200201516000191660001916815260200190815260200160002060408051908101604052908160008201546000191660001916815260200160018201548152505083838151811015156104ef57fe5b90602001906020020181905250818060010192505061045e565b82945050505050919050565b61051d610c9b565b608060405190810160405280836000191681526020016001600381111561054057fe5b81526020013373ffffffffffffffffffffffffffffffffffffffff16815260200160006040519080825280602002602001820160405280156105915781602001602082028038833980820191505090505b5081525090506000829080600181540180825580915050906001820390600052602060002001600090919290919091509060001916905550806001600084600019166000191681526020019081526020016000206000820151816000019060001916905560208201518160010160006101000a81548160ff0219169083600381111561061957fe5b021790555060408201518160010160016101000a81548173ffffffffffffffffffffffffffffffffffffffff021916908373ffffffffffffffffffffffffffffffffffffffff1602179055506060820151816002019080519060200190610681929190610d05565b509050505050565b610691610c9b565b816000600381111561069f57fe5b6106a882610aa6565b6020015160038111156106b757fe5b1115156106c357600080fd5b6106cc83610aa6565b915050919050565b600082600060038111156106e457fe5b6106ed82610aa6565b6020015160038111156106fc57fe5b11151561070857600080fd5b83836107148282610bcd565b15151561072057600080fd5b85600180600381111561072f57fe5b61073883610aa6565b60200151600381111561074757fe5b14151561075357600080fd5b61075c88610c44565b95508560020187908060018154018082558091505090600182039060005260206000200160009091929091909150906000191690555086600260008a600019166000191681526020019081526020016000206000896000191660001916815260200190815260200160002060000181600019169055506000600260008a6000191660001916815260200190815260200160002060008960001916600019168152602001908152602001600020600101819055505050505050505050565b806000600381111561082757fe5b61083082610aa6565b60200151600381111561083f57fe5b11151561084b57600080fd5b813373ffffffffffffffffffffffffffffffffffffffff1661086c82610aa6565b6040015173ffffffffffffffffffffffffffffffffffffffff1614151561089257600080fd5b8260028060038111156108a157fe5b6108aa83610aa6565b6020015160038111156108b957fe5b1415156108c557600080fd5b60036108d086610c44565b60010160006101000a81548160ff021916908360038111156108ee57fe5b02179055505050505050565b816000600381111561090857fe5b61091182610aa6565b60200151600381111561092057fe5b11151561092c57600080fd5b82826109388282610bcd565b151561094357600080fd5b84600280600381111561095257fe5b61095b83610aa6565b60200151600381111561096a57fe5b14151561097657600080fd5b6001600260008960001916600019168152602001908152602001600020600088600019166000191681526020019081526020016000206001016000828254019250508190555050505050505050565b80600060038111156109d357fe5b6109dc82610aa6565b6020015160038111156109eb57fe5b1115156109f757600080fd5b813373ffffffffffffffffffffffffffffffffffffffff16610a1882610aa6565b6040015173ffffffffffffffffffffffffffffffffffffffff16141515610a3e57600080fd5b826001806003811115610a4d57fe5b610a5683610aa6565b602001516003811115610a6557fe5b141515610a7157600080fd5b6002610a7c86610c44565b60010160006101000a81548160ff02191690836003811115610a9a57fe5b02179055505050505050565b610aae610c9b565b600160008360001916600019168152602001908152602001600020608060405190810160405290816000820154600019166000191681526020016001820160009054906101000a900460ff166003811115610b0557fe5b6003811115610b1057fe5b81526020016001820160019054906101000a900473ffffffffffffffffffffffffffffffffffffffff1673ffffffffffffffffffffffffffffffffffffffff1673ffffffffffffffffffffffffffffffffffffffff16815260200160028201805480602002602001604051908101604052809291908181526020018280548015610bbd57602002820191906000526020600020905b81546000191681526020019060010190808311610ba5575b5050505050815250509050919050565b6000610bd7610c9b565b600080610be386610aa6565b925060009150600090505b826060015151811015610c38578460001916836060015182815181101515610c1257fe5b90602001906020020151600019161415610c2b57600191505b8080600101915050610bee565b81935050505092915050565b60008160006003811115610c5457fe5b610c5d82610aa6565b602001516003811115610c6c57fe5b111515610c7857600080fd5b600160008460001916600019168152602001908152602001600020915050919050565b6080604051908101604052806000801916815260200160006003811115610cbe57fe5b8152602001600073ffffffffffffffffffffffffffffffffffffffff168152602001606081525090565b604080519081016040528060008019168152602001600081525090565b828054828255906000526020600020908101928215610d47579160200282015b82811115610d46578251829060001916905591602001919060010190610d25565b5b509050610d549190610d58565b5090565b610d7a91905b80821115610d76576000816000905550600101610d5e565b5090565b90565b6000610d898235611088565b905092915050565b600060208284031215610da357600080fd5b6000610db184828501610d7d565b91505092915050565b60008060408385031215610dcd57600080fd5b6000610ddb85828601610d7d565b9250506020610dec85828601610d7d565b9150509250929050565b610dff81611032565b82525050565b6000610e1082611002565b808452602084019350610e2283610fe8565b60005b82811015610e5457610e38868351610eca565b610e4182611018565b9150602086019550600181019050610e25565b50849250505092915050565b6000610e6b8261100d565b808452602084019350610e7d83610ff5565b60005b82811015610eaf57610e93868351610f4b565b610e9c82611025565b9150604086019550600181019050610e80565b50849250505092915050565b610ec481611052565b82525050565b610ed38161105e565b82525050565b610ee281611092565b82525050565b6000608083016000830151610f006000860182610eca565b506020830151610f136020860182610ed9565b506040830151610f266040860182610df6565b5060608301518482036060860152610f3e8282610e05565b9150508091505092915050565b604082016000820151610f616000850182610eca565b506020820151610f746020850182610f7a565b50505050565b610f838161107e565b82525050565b60006020820190508181036000830152610fa38184610e60565b905092915050565b6000602082019050610fc06000830184610ebb565b92915050565b60006020820190508181036000830152610fe08184610ee8565b905092915050565b6000602082019050919050565b6000602082019050919050565b600081519050919050565b600081519050919050565b6000602082019050919050565b6000602082019050919050565b600073ffffffffffffffffffffffffffffffffffffffff82169050919050565b60008115159050919050565b6000819050919050565b600060048210151561107657fe5b819050919050565b6000819050919050565b6000819050919050565b600061109d82611068565b90509190505600a265627a7a72305820e98072310dbb18106fb4bb88bb5956dfb988f33a19178d41e5e2465122c1d8486c6578706572696d656e74616cf50037",
  "source": "//pragma solidity ^0.5.11;\npragma solidity ^0.4.25;\npragma experimental ABIEncoderV2;\n\ncontract VotingSystem {\n\n    enum State {\n        NOT_CREATED, //Default value & value given to unknown ballots\n        CREATED, //Can add participants\n        OPENED, //Can vote\n        ENCLOSED //Can watch results\n    }\n\n    struct BallotExistence {\n        uint id;\n        bool exists;\n    }\n\n    struct Candidate {\n        bytes32 name;\n        uint vote;\n    }\n\n    struct Ballot {\n        bytes32 name;\n        State state;\n        address owner;\n        bytes32[] candidatesName;\n    }\n\n    bytes32[] ballots;\n    mapping(bytes32 => Ballot) ballotMapping;\n    mapping(bytes32 => mapping(bytes32 => Candidate)) candidatesMapping;\n\n    modifier ballotExists(bytes32 _ballotName) {\n        require(getBallotByName(_ballotName).state > State.NOT_CREATED);\n        _;\n    }\n\n    modifier ownsBallot(bytes32 _ballotName) {\n        require(getBallotByName(_ballotName).owner == msg.sender);\n        _;\n    }\n\n    modifier isState(bytes32 _ballotName, State _state) {\n        require(getBallotByName(_ballotName).state == _state);\n        _;\n    }\n\n    modifier isNotAlreadyCandidate(bytes32 _ballotName, bytes32 _candidateName) {\n        require(!isBallotCandidate(_ballotName, _candidateName));\n        _;\n    }\n\n    modifier isCandidate(bytes32 _ballotName, bytes32 _candidateName) {\n        require(isBallotCandidate(_ballotName, _candidateName));\n        _;\n    }\n\n    function createBallot(bytes32 _ballotName) public {\n        Ballot memory _newBallot = Ballot({\n            name : _ballotName,\n            state : State.CREATED,\n            owner : msg.sender,\n            candidatesName : new bytes32[](0)\n            });\n\n        ballots.push(_ballotName);\n        ballotMapping[_ballotName] = _newBallot;\n    }\n\n    function openBallotVotes(bytes32 _ballotName) public ballotExists(_ballotName) ownsBallot(_ballotName) isState(_ballotName, State.CREATED) {\n        getStorageBallot(_ballotName).state = State.OPENED;\n    }\n\n    function closeBallotVotes(bytes32 _ballotName) public ballotExists(_ballotName) ownsBallot(_ballotName) isState(_ballotName, State.OPENED) {\n        getStorageBallot(_ballotName).state = State.ENCLOSED;\n    }\n\n    function getBallotByName(bytes32 _ballotName) internal view returns (Ballot memory) {\n        return ballotMapping[_ballotName];\n    }\n\n    function getBallot(bytes32 _ballotName) view public ballotExists(_ballotName) returns (Ballot memory) {\n        return getBallotByName(_ballotName);\n    }\n\n    function getStorageBallot(bytes32 _ballotName) view internal ballotExists(_ballotName) returns (Ballot storage) {\n        return ballotMapping[_ballotName];\n    }\n\n    function isCreated(bytes32 _ballotName) view public ballotExists(_ballotName) returns (bool) {\n        return getBallotByName(_ballotName).state == State.CREATED;\n    }\n\n    function isOpened(bytes32 _ballotName) view public ballotExists(_ballotName) returns (bool) {\n        return getBallotByName(_ballotName).state == State.OPENED;\n    }\n\n    function isEnclosed(bytes32 _ballotName) view public ballotExists(_ballotName) returns (bool) {\n        return getBallotByName(_ballotName).state == State.ENCLOSED;\n    }\n\n    function isBallotCandidate(bytes32 _ballotName, bytes32 _candidateName) internal view returns (bool) {\n        Ballot memory _ballot = getBallotByName(_ballotName);\n        bool candidateExists = false;\n        for(uint i = 0; i < _ballot.candidatesName.length; i++) {\n            if(_ballot.candidatesName[i] == _candidateName) {\n                candidateExists = true;\n            }\n        }\n\n        return candidateExists;\n    }\n\n    function addCandidate(bytes32 _ballotName, bytes32 _candidateName) public ballotExists(_ballotName) isNotAlreadyCandidate(_ballotName, _candidateName) isState(_ballotName, State.CREATED) {\n        Ballot storage _ballot = getStorageBallot(_ballotName);\n        _ballot.candidatesName.push(_candidateName);\n        candidatesMapping[_ballotName][_candidateName].name = _candidateName;\n        candidatesMapping[_ballotName][_candidateName].vote = 0;\n    }\n\n    function getCandidatesResult(bytes32 _ballotName) public view ballotExists(_ballotName) returns (Candidate[] memory) {\n        Ballot memory _ballot = getBallotByName(_ballotName);\n        Candidate[] memory _candidates = new Candidate[](_ballot.candidatesName.length);\n        for(uint i = 0; i < _ballot.candidatesName.length; i++) {\n            _candidates[i] = candidatesMapping[_ballotName][_ballot.candidatesName[i]];\n        }\n\n        return _candidates;\n    }\n\n    function vote(bytes32 _ballotName, bytes32 _candidateName) public ballotExists(_ballotName) isCandidate(_ballotName, _candidateName) isState(_ballotName, State.OPENED) {\n        candidatesMapping[_ballotName][_candidateName].vote += 1;\n    }\n}\n",
  "sourcePath": "/home/celia/Documents/ESGI/BLOCKCHAIN/SmartVotingSystemContract/contracts/VotingSystem.sol",
  "compiler": {
    "name": "solc",
    "version": "0.4.25+commit.59dbf8f1.Emscripten.clang"
  },
  "schemaVersion": "3.0.2",
  "updatedAt": "2020-01-25T13:53:37.069Z",
  "devdoc": {
    "methods": {}
  },
  "userdoc": {
    "methods": {}
  }
}