{
  "contractName": "VotingSystem",
  "abi": [
    {
      "constant": true,
      "inputs": [
        {
          "name": "",
          "type": "uint256"
        }
      ],
      "name": "ballots",
      "outputs": [
        {
          "name": "name",
          "type": "bytes32"
        },
        {
          "name": "state",
          "type": "uint8"
        },
        {
          "name": "owner",
          "type": "address"
        }
      ],
      "payable": false,
      "stateMutability": "view",
      "type": "function",
      "signature": "0x5c632b38"
    },
    {
      "constant": false,
      "inputs": [
        {
          "name": "_ballotName",
          "type": "bytes32"
        }
      ],
      "name": "createBallot",
      "outputs": [],
      "payable": false,
      "stateMutability": "nonpayable",
      "type": "function",
      "signature": "0x6d943451"
    },
    {
      "constant": false,
      "inputs": [
        {
          "name": "_ballotName",
          "type": "bytes32"
        }
      ],
      "name": "openBallotVotes",
      "outputs": [],
      "payable": false,
      "stateMutability": "nonpayable",
      "type": "function",
      "signature": "0xfd04dadd"
    },
    {
      "constant": false,
      "inputs": [
        {
          "name": "_ballotName",
          "type": "bytes32"
        }
      ],
      "name": "closeBallotVotes",
      "outputs": [],
      "payable": false,
      "stateMutability": "nonpayable",
      "type": "function",
      "signature": "0xb6e63315"
    },
    {
      "constant": true,
      "inputs": [
        {
          "name": "_ballotName",
          "type": "bytes32"
        }
      ],
      "name": "getBallot",
      "outputs": [
        {
          "components": [
            {
              "name": "name",
              "type": "bytes32"
            },
            {
              "name": "state",
              "type": "uint8"
            },
            {
              "name": "owner",
              "type": "address"
            },
            {
              "name": "candidatesName",
              "type": "bytes32[]"
            }
          ],
          "name": "",
          "type": "tuple"
        }
      ],
      "payable": false,
      "stateMutability": "view",
      "type": "function",
      "signature": "0x94ad119a"
    },
    {
      "constant": true,
      "inputs": [
        {
          "name": "_ballotName",
          "type": "bytes32"
        }
      ],
      "name": "getBallotId",
      "outputs": [
        {
          "name": "",
          "type": "uint256"
        }
      ],
      "payable": false,
      "stateMutability": "view",
      "type": "function",
      "signature": "0xd33d3001"
    },
    {
      "constant": true,
      "inputs": [
        {
          "name": "_ballotName",
          "type": "bytes32"
        }
      ],
      "name": "isCreated",
      "outputs": [
        {
          "name": "",
          "type": "bool"
        }
      ],
      "payable": false,
      "stateMutability": "view",
      "type": "function",
      "signature": "0x2f553d31"
    },
    {
      "constant": true,
      "inputs": [
        {
          "name": "_ballotName",
          "type": "bytes32"
        }
      ],
      "name": "isOpened",
      "outputs": [
        {
          "name": "",
          "type": "bool"
        }
      ],
      "payable": false,
      "stateMutability": "view",
      "type": "function",
      "signature": "0x5f5794f1"
    },
    {
      "constant": true,
      "inputs": [
        {
          "name": "_ballotName",
          "type": "bytes32"
        }
      ],
      "name": "isEnclosed",
      "outputs": [
        {
          "name": "",
          "type": "bool"
        }
      ],
      "payable": false,
      "stateMutability": "view",
      "type": "function",
      "signature": "0x11604adf"
    },
    {
      "constant": false,
      "inputs": [
        {
          "name": "_ballotName",
          "type": "bytes32"
        },
        {
          "name": "_candidateName",
          "type": "bytes32"
        }
      ],
      "name": "addCandidate",
      "outputs": [],
      "payable": false,
      "stateMutability": "nonpayable",
      "type": "function",
      "signature": "0xa1adbb25"
    },
    {
      "constant": true,
      "inputs": [
        {
          "name": "a",
          "type": "bytes32"
        },
        {
          "name": "b",
          "type": "bytes32"
        }
      ],
      "name": "testEquality",
      "outputs": [
        {
          "name": "",
          "type": "bool"
        }
      ],
      "payable": false,
      "stateMutability": "pure",
      "type": "function",
      "signature": "0x79fc9492"
    }
  ],
  "bytecode": "0x608060405234801561001057600080fd5b506112be806100206000396000f3006080604052600436106100af576000357c0100000000000000000000000000000000000000000000000000000000900463ffffffff16806311604adf146100b45780632f553d31146100f15780635c632b381461012e5780635f5794f11461016d5780636d943451146101aa57806379fc9492146101d357806394ad119a14610210578063a1adbb251461024d578063b6e6331514610276578063d33d30011461029f578063fd04dadd146102dc575b600080fd5b3480156100c057600080fd5b506100db60048036036100d69190810190610fbd565b610305565b6040516100e89190611154565b60405180910390f35b3480156100fd57600080fd5b5061011860048036036101139190810190610fbd565b6103ae565b6040516101259190611154565b60405180910390f35b34801561013a57600080fd5b5061015560048036036101509190810190611022565b610490565b6040516101649392919061116f565b60405180910390f35b34801561017957600080fd5b50610194600480360361018f9190810190610fbd565b6104f6565b6040516101a19190611154565b60405180910390f35b3480156101b657600080fd5b506101d160048036036101cc9190810190610fbd565b6105a0565b005b3480156101df57600080fd5b506101fa60048036036101f59190810190610fe6565b61075b565b6040516102079190611154565b60405180910390f35b34801561021c57600080fd5b5061023760048036036102329190810190610fbd565b610770565b60405161024491906111a6565b60405180910390f35b34801561025957600080fd5b50610274600480360361026f9190810190610fe6565b61092c565b005b34801561028257600080fd5b5061029d60048036036102989190810190610fbd565b610a4d565b005b3480156102ab57600080fd5b506102c660048036036102c19190810190610fbd565b610b6a565b6040516102d391906111c8565b60405180910390f35b3480156102e857600080fd5b5061030360048036036102fe9190810190610fbd565b610b92565b005b600061030f610eb4565b82610318610f01565b600160008360001916600019168152602001908152602001600020604080519081016040529081600082015481526020016001820160009054906101000a900460ff1615151515815250509050600115158160200151151514151561037c57600080fd5b61038585610770565b925060038081111561039357fe5b836020015160038111156103a357fe5b149350505050919050565b600080826103ba610f01565b600160008360001916600019168152602001908152602001600020604080519081016040529081600082015481526020016001820160009054906101000a900460ff1615151515815250509050600115158160200151151514151561041e57600080fd5b6001600086600019166000191681526020019081526020016000206000015492506001600381111561044c57fe5b60008481548110151561045b57fe5b906000526020600020906003020160010160009054906101000a900460ff16600381111561048557fe5b149350505050919050565b60008181548110151561049f57fe5b90600052602060002090600302016000915090508060000154908060010160009054906101000a900460ff16908060010160019054906101000a900473ffffffffffffffffffffffffffffffffffffffff16905083565b6000610500610eb4565b82610509610f01565b600160008360001916600019168152602001908152602001600020604080519081016040529081600082015481526020016001820160009054906101000a900460ff1615151515815250509050600115158160200151151514151561056d57600080fd5b61057685610770565b92506002600381111561058557fe5b8360200151600381111561059557fe5b149350505050919050565b6105a8610eb4565b600060806040519081016040528084600019168152602001600160038111156105cd57fe5b81526020013373ffffffffffffffffffffffffffffffffffffffff168152602001600060405190808252806020026020018201604052801561061e5781602001602082028038833980820191505090505b5081525091506001600083908060018154018082558091505090600182039060005260206000209060030201600090919290919091506000820151816000019060001916905560208201518160010160006101000a81548160ff0219169083600381111561068857fe5b021790555060408201518160010160016101000a81548173ffffffffffffffffffffffffffffffffffffffff021916908373ffffffffffffffffffffffffffffffffffffffff16021790555060608201518160020190805190602001906106f0929190610f1d565b5050500390506040805190810160405280828152602001600115158152506001600085600019166000191681526020019081526020016000206000820151816000015560208201518160010160006101000a81548160ff021916908315150217905550905050505050565b60008160001916836000191614905092915050565b610778610eb4565b600082610783610f01565b600160008360001916600019168152602001908152602001600020604080519081016040529081600082015481526020016001820160009054906101000a900460ff161515151581525050905060011515816020015115151415156107e757600080fd5b60016000866000191660001916815260200190815260200160002060000154925060008381548110151561081757fe5b9060005260206000209060030201608060405190810160405290816000820154600019166000191681526020016001820160009054906101000a900460ff16600381111561086157fe5b600381111561086c57fe5b81526020016001820160019054906101000a900473ffffffffffffffffffffffffffffffffffffffff1673ffffffffffffffffffffffffffffffffffffffff1673ffffffffffffffffffffffffffffffffffffffff1681526020016002820180548060200260200160405190810160405280929190818152602001828054801561091957602002820191906000526020600020905b81546000191681526020019060010190808311610901575b5050505050815250509350505050919050565b600082610937610f01565b600160008360001916600019168152602001908152602001600020604080519081016040529081600082015481526020016001820160009054906101000a900460ff1615151515815250509050600115158160200151151514151561099b57600080fd5b84846109a5610eb4565b60006109b084610caf565b9150600090505b816060015151811015610a035782600019168260600151828151811015156109db57fe5b9060200190602002015160001916141515156109f657600080fd5b80806001019150506109b7565b610a0c89610dfc565b965086600201889080600181540180825580915050906001820390600052602060002001600090919290919091509060001916905550505050505050505050565b80610a56610f01565b600160008360001916600019168152602001908152602001600020604080519081016040529081600082015481526020016001820160009054906101000a900460ff16151515158152505090506001151581602001511515141515610aba57600080fd5b823373ffffffffffffffffffffffffffffffffffffffff16610adb82610caf565b6040015173ffffffffffffffffffffffffffffffffffffffff16141515610b0157600080fd5b836002806003811115610b1057fe5b610b1983610caf565b602001516003811115610b2857fe5b141515610b3457600080fd5b6003610b3f87610dfc565b60010160006101000a81548160ff02191690836003811115610b5d57fe5b0217905550505050505050565b6000600160008360001916600019168152602001908152602001600020600001549050919050565b80610b9b610f01565b600160008360001916600019168152602001908152602001600020604080519081016040529081600082015481526020016001820160009054906101000a900460ff16151515158152505090506001151581602001511515141515610bff57600080fd5b823373ffffffffffffffffffffffffffffffffffffffff16610c2082610caf565b6040015173ffffffffffffffffffffffffffffffffffffffff16141515610c4657600080fd5b836001806003811115610c5557fe5b610c5e83610caf565b602001516003811115610c6d57fe5b141515610c7957600080fd5b6002610c8487610dfc565b60010160006101000a81548160ff02191690836003811115610ca257fe5b0217905550505050505050565b610cb7610eb4565b6000600160008460001916600019168152602001908152602001600020600001549050600081815481101515610ce957fe5b9060005260206000209060030201608060405190810160405290816000820154600019166000191681526020016001820160009054906101000a900460ff166003811115610d3357fe5b6003811115610d3e57fe5b81526020016001820160019054906101000a900473ffffffffffffffffffffffffffffffffffffffff1673ffffffffffffffffffffffffffffffffffffffff1673ffffffffffffffffffffffffffffffffffffffff16815260200160028201805480602002602001604051908101604052809291908181526020018280548015610deb57602002820191906000526020600020905b81546000191681526020019060010190808311610dd3575b505050505081525050915050919050565b60008082610e08610f01565b600160008360001916600019168152602001908152602001600020604080519081016040529081600082015481526020016001820160009054906101000a900460ff16151515158152505090506001151581602001511515141515610e6c57600080fd5b600160008660001916600019168152602001908152602001600020600001549250600083815481101515610e9c57fe5b90600052602060002090600302019350505050919050565b6080604051908101604052806000801916815260200160006003811115610ed757fe5b8152602001600073ffffffffffffffffffffffffffffffffffffffff168152602001606081525090565b6040805190810160405280600081526020016000151581525090565b828054828255906000526020600020908101928215610f5f579160200282015b82811115610f5e578251829060001916905591602001919060010190610f3d565b5b509050610f6c9190610f70565b5090565b610f9291905b80821115610f8e576000816000905550600101610f76565b5090565b90565b6000610fa1823561125e565b905092915050565b6000610fb58235611268565b905092915050565b600060208284031215610fcf57600080fd5b6000610fdd84828501610f95565b91505092915050565b60008060408385031215610ff957600080fd5b600061100785828601610f95565b925050602061101885828601610f95565b9150509250929050565b60006020828403121561103457600080fd5b600061104284828501610fa9565b91505092915050565b61105481611208565b82525050565b6000611065826111f0565b808452602084019350611077836111e3565b60005b828110156110a95761108d8683516110c4565b611096826111fb565b915060208601955060018101905061107a565b50849250505092915050565b6110be81611228565b82525050565b6110cd81611234565b82525050565b6110dc81611272565b82525050565b60006080830160008301516110fa60008601826110c4565b50602083015161110d60208601826110d3565b506040830151611120604086018261104b565b5060608301518482036060860152611138828261105a565b9150508091505092915050565b61114e81611254565b82525050565b600060208201905061116960008301846110b5565b92915050565b600060608201905061118460008301866110c4565b61119160208301856110d3565b61119e604083018461104b565b949350505050565b600060208201905081810360008301526111c081846110e2565b905092915050565b60006020820190506111dd6000830184611145565b92915050565b6000602082019050919050565b600081519050919050565b6000602082019050919050565b600073ffffffffffffffffffffffffffffffffffffffff82169050919050565b60008115159050919050565b6000819050919050565b600060048210151561124c57fe5b819050919050565b6000819050919050565b6000819050919050565b6000819050919050565b600061127d8261123e565b90509190505600a265627a7a7230582066806ed72ee36e57daca4433cd4062cfc88b08e2a2019c9f5cbd90b6648891396c6578706572696d656e74616cf50037",
  "source": "//pragma solidity ^0.5.11;\npragma solidity ^0.4.25;\npragma experimental ABIEncoderV2;\n\ncontract VotingSystem {\n\n    enum State {\n        NOT_CREATED, //Default value & value given to unknown ballots\n        CREATED, //Can add participants\n        OPENED, //Can vote\n        ENCLOSED //Can watch results\n    }\n\n    struct BallotExistence {\n        uint id;\n        bool exists;\n    }\n\n    struct Ballot {\n        bytes32 name;\n        State state;\n        address owner;\n        bytes32[] candidatesName;\n    }\n\n    Ballot[] public ballots;\n    mapping(bytes32 => BallotExistence) ballotMapping;\n\n    modifier ballotExists(bytes32 _ballotName) {\n        BallotExistence memory existence = ballotMapping[_ballotName];\n        require(existence.exists == true);\n        _;\n    }\n\n    modifier ownsBallot(bytes32 _ballotName) {\n        require(getBallotByName(_ballotName).owner == msg.sender);\n        _;\n    }\n\n    modifier isState(bytes32 _ballotName, State _state) {\n        require(getBallotByName(_ballotName).state == _state);\n        _;\n    }\n\n    modifier isNotAlreadyCandidate(bytes32 _ballotName, bytes32 _candidateName) {\n        Ballot memory _ballot = getBallotByName(_ballotName);\n        for(uint i = 0; i < _ballot.candidatesName.length; i++) {\n            require(_ballot.candidatesName[i] !=_candidateName );\n        }\n        _;\n    }\n\n    function createBallot(bytes32 _ballotName) public {\n        Ballot memory _newBallot = Ballot({\n            name : _ballotName,\n            state : State.CREATED,\n            owner : msg.sender,\n            candidatesName : new bytes32[](0)\n            });\n\n        uint _ballotId = ballots.push(_newBallot) - 1;\n        ballotMapping[_ballotName] = BallotExistence({id : _ballotId, exists : true});\n    }\n\n    function openBallotVotes(bytes32 _ballotName) public ballotExists(_ballotName) ownsBallot(_ballotName) isState(_ballotName, State.CREATED) {\n        getStorageBallot(_ballotName).state = State.OPENED;\n    }\n\n    function closeBallotVotes(bytes32 _ballotName) public ballotExists(_ballotName) ownsBallot(_ballotName) isState(_ballotName, State.OPENED) {\n        getStorageBallot(_ballotName).state = State.ENCLOSED;\n    }\n\n    function getBallotByName(bytes32 _ballotName) internal view returns (Ballot memory) {\n        uint _ballotId = ballotMapping[_ballotName].id;\n        return ballots[_ballotId];\n    }\n\n    function getBallot(bytes32 _ballotName) view public ballotExists(_ballotName) returns (Ballot memory) {\n        uint ballotId = ballotMapping[_ballotName].id;\n        return ballots[ballotId];\n    }\n\n    function getStorageBallot(bytes32 _ballotName) view internal ballotExists(_ballotName) returns (Ballot storage) {\n        uint ballotId = ballotMapping[_ballotName].id;\n        return ballots[ballotId];\n    }\n\n    function getBallotId(bytes32 _ballotName) view public returns (uint) {\n        return ballotMapping[_ballotName].id;\n    }\n\n    function isCreated(bytes32 _ballotName) view public ballotExists(_ballotName) returns (bool) {\n        uint ballotId = ballotMapping[_ballotName].id;\n        return ballots[ballotId].state == State.CREATED;\n    }\n\n    function isOpened(bytes32 _ballotName) view public ballotExists(_ballotName) returns (bool) {\n        Ballot memory _ballot = getBallot(_ballotName);\n        return _ballot.state == State.OPENED;\n    }\n\n    function isEnclosed(bytes32 _ballotName) view public ballotExists(_ballotName) returns (bool) {\n        Ballot memory _ballot = getBallot(_ballotName);\n        return _ballot.state == State.ENCLOSED;\n    }\n\n    function addCandidate(bytes32 _ballotName, bytes32 _candidateName) public ballotExists(_ballotName) isNotAlreadyCandidate(_ballotName, _candidateName){\n        Ballot storage _ballot = getStorageBallot(_ballotName);\n        _ballot.candidatesName.push(_candidateName);\n    }\n\n    function testEquality(bytes32 a, bytes32 b) public pure returns (bool) {\n        return a == b;\n    }\n}\n",
  "sourcePath": "/home/celia/Documents/ESGI/BLOCKCHAIN/SmartVotingSystemContract/contracts/VotingSystem.sol",
  "compiler": {
    "name": "solc",
    "version": "0.4.25+commit.59dbf8f1.Emscripten.clang"
  },
  "schemaVersion": "3.0.2",
  "updatedAt": "2020-01-24T14:06:27.598Z",
  "devdoc": {
    "methods": {}
  },
  "userdoc": {
    "methods": {}
  }
}